:020000040000FA
:100000000C9413020C9444020C9444020C94440289
:100010000C9444020C9444020C9444020C94440248
:100020000C9444020C9444020C9444020C94440238
:100030000C9444020C9444020C9444020C94440228
:100040000C9444020C9444020C9444020C94440218
:100050000C9444020C9444020C9444020C94851AAF
:100060000C9444020C94F91A0C94CF1A0C94440288
:100070000C9444020C9444020C9444020C944402E8
:100080000C9444020C9444020C9444020C944402D8
:100090000C9444020C9444020C9444020C944402C8
:1000A0000C9444020C9444020C9444020C944402B8
:1000B0000C9444020C9444020C9444020C944402A8
:1000C0000C9444020C9444020C9444020C94440298
:1000D0000C9444020C9444020C9444020C94440288
:1000E0000C9444020C94E6020C9406070C947F0DC9
:1000F0000C94AF190C9438050C94B1190C94480366
:100100000C9479060C948D050C945B040C94ED060C
:100110000C9420050C943F060C94A1060C94CA067E
:100120000C9497040C94AF020C94F3040C945B05AC
:100130000C9455060C94B7020C940D050C944F04C6
:100140000C94FE030C94DA050C94E2060C9418034C
:100150000C94BC060C9450040C94B5190C94F6063F
:100160000C94DE040C94B9060C94401A0C942305EC
:100170000C9430060C94AC060C9494020C94DC02A3
:100180000C943B0E0C94B3190C945E190C9415034B
:100190000C945F040C946B030C94BB1B0C94C40272
:1001A0000C94C5040C94BF060C94AB040C9421076A
:1001B0000C94C0020C94CA020C948C060C94CE02CF
:1001C0000C94E0020C945C040C94C40C0C94870511
:1001D0000C947B0D0C944D0E0C94400E0C94D2029A
:1001E0000C94F7190C94DB040C946A060C94D80256
:1001F0000C9400070C94B7050C94D8040C94570386
:100200000C94BA020C94B1030C9499020C940E074E
:100210000C9403070C943F090C9479030C94170772
:100220000C9462040C9424070C94D5060C94AB0235
:100230000C9463040C948A050C94B3020C94EA02A7
:100240000C941B030C9452060C94DE0D0C940606C1
:10025000B90A0000BC0A0F00CD0A0000D00A0F0046
:100260000E0B0000110B0F00220B0000250B0F00DE
:10027000630B0000660B0F00770B00007A0B0F007A
:10028000B60B0F00C70B0000CA0B0000CD0B00001F
:10029000D00B0000D30B0000D60B0000D90B0000E0
:1002A000DC0B0000DF0B0000E20B0000E50B0000A0
:1002B000E80B0000EB0B0000EE0B0000F10B000060
:1002C000F40B0000F70B0000FA0B0000FD0B000020
:1002D000000C0000030C0000060C0000090C0000DC
:1002E0000C0C00000F0C0000120C0000150C00009C
:1002F000180C00001B0C00001E0C0000210C00005C
:10030000240C0000270C00002A0C00002D0C00001B
:10031000300C0000330C0000360C0000390C0000DB
:100320003C0C00003F0C0B00420C0000450C0B0085
:10033000480C00005002390000002200250028006F
:100340002B002E00310034000201000005010801DD
:100350000B01050505050705080808080202020249
:100360000A0A080804040404010101010101010151
:100370000303030303030303040707070C0C0C0C1C
:100380000C0C0C0C02020202060606060606060605
:100390000B0B0B0B0B0B0B0B010210202008081092
:1003A00020401020408002010201080402010102E5
:1003B00004081020408080402010080402018004BE
:1003C0000201804020100804020108040201010219
:1003D0000408102040800102040810204080000022
:1003E0000A0B02090C0D0E080703040100000000AF
:1003F00000000000000000000000000000000000FD
:1004000000000000000000000000121110000000B9
:1004100000000000000000000000000000000000DC
:1004200000000000BB1B11241FBECFEFDFEFDEBFBB
:10043000CDBF00E00CBF16E0A0E0B2E0E4E4FCE4D5
:1004400000E00BBF02C007900D92A83FB107D9F79B
:100450002CE0A8EFB6E001C01D92AE36B207E1F77E
:1004600012E0C3E1D2E000E006C021970109802F2D
:10047000FE010E941824C231D10780E00807A9F7C5
:100480000E94E21E0C9420260C9400004091140A55
:100490005091150AE4E1F9E081E090E04230510525
:1004A00030F41092150A1092140A0895C90121819E
:1004B00021939C012F5F3F4F42175307B9F7909349
:1004C000150A8093140A0895282F30E0F901E252AA
:1004D000FC4F9491F901E856FC4F44912E5A3C4F41
:1004E000F9012491222309F435C0992311F1915087
:1004F0009231F8F4E92FF0E08827EE57FD4F8F4F47
:100500000C941824B302B7029402AB02AF02990212
:10051000BA02C002C402CA02CE02D202D802DC026F
:100520009902E002E602EA02809180008F778093D0
:100530008000E22FF0E0EE0FFF1FE85CFC4FA5917A
:10054000B4918FB7F894EC91611148C040954E2357
:100550004C938FBF0895809180008F7DE8CF80916C
:100560008000877FE4CF84B58F7784BDE2CF84B5E8
:100570008F7DFBCF8091B0008F778093B000D9CF73
:100580008091B0008F7DF9CF809190008F7780931C
:100590009000CFCF809190008F7DF9CF8091900017
:1005A000877FF5CF8091A0008F778093A000C1CF87
:1005B0008091A0008F7DF9CF8091A000877FF5CF3B
:1005C000809120018F7780932001B3CF809120010B
:1005D0008F7DF9CF80912001877FF5CF4E2BB8CF4B
:1005E0003FB7F8948091100990911109A0911209D8
:1005F000B091130926B5A89B05C02F3F19F00196AD
:10060000A11DB11D3FBFBA2FA92F982F8827BC016C
:10061000CD01620F711D811D911D42E0660F771F94
:10062000881F991F4A95D1F7089581E090E00895B9
:1006300081559E4F0895AF92BF92CF92DF92EF9275
:10064000FF920F931F93CF93DF936C017B018B017C
:10065000040F151FEB015E01AE18BF08C017D107CC
:1006600059F06991D601ED91FC910190F081E02D56
:10067000C6011995892B79F7C501DF91CF911F919B
:100680000F91FF90EF90DF90CF90BF90AF900895C3
:10069000FC01538D448D252F30E0842F90E0821B88
:1006A000930B541710F0CF96089501970895FC010D
:1006B000918D828D981761F0A28DAE0FBF2FB11D65
:1006C0005D968C91928D9F5F9F73928F90E00895BD
:1006D0008FEF9FEF0895FC01918D828D981731F077
:1006E000828DE80FF11D858D90E008958FEF9FEFCB
:1006F0000895FC01918D228D892F90E0805C9F4FA1
:10070000821B91098F739927089586E19AE00E94D0
:10071000790321E0892B09F420E0822F0895FC0160
:10072000A48DA80FB92FB11DA35ABF4F2C91848D52
:1007300090E001968F739927848FA689B7892C93AF
:10074000A089B1898C91837080648C93938D848D02
:10075000981306C00288F389E02D80818F7D808305
:100760000895EF92FF920F931F93CF93DF93EC01C5
:1007700081E0888F9B8D8C8D98131AC0E889F98948
:10078000808185FF15C09FB7F894EE89FF8960834B
:10079000E889F98980818370806480839FBF81E0CC
:1007A00090E0DF91CF911F910F91FF90EF9008950E
:1007B000F62E0B8D10E00F5F1F4F0F731127E02EE9
:1007C0008C8D8E110CC00FB607FCFACFE889F98921
:1007D000808185FFF5CFCE010E948F03F1CFEB8D95
:1007E000EC0FFD2FF11DE35AFF4FF0829FB7F894F5
:1007F0000B8FEA89FB8980818062CFCFCF93DF9313
:10080000EC01888D8823B9F0AA89BB89E889F98928
:100810008C9185FD03C0808186FD0DC00FB607FC5D
:10082000F7CF8C9185FFF2CF808185FFEDCFCE0190
:100830000E948F03E9CFDF91CF91089580E090E08F
:10084000892B29F00E94850381110E94000080E01D
:1008500090E0892B49F080E090E0892B29F00E94FC
:10086000000081110E94000080E090E0892B49F097
:1008700080E090E0892B29F00E94000081110E9405
:10088000000080E090E0892B49F080E090E0892B27
:1008900029F00E94000081110C9400000895089531
:1008A000FB011082118212821382FA0110821182DE
:1008B000128213820895089590E080E0089590E0F8
:1008C00080E0089508950895DC01FB018085882368
:1008D00029F17185628553854485358526859785FF
:1008E00080891896EC911897E11116C07C931196A7
:1008F0006C93119712965C93129713964C931397DF
:1009000014963C93149715962C93159716969C93D2
:10091000169717968C931797CD0108957081618172
:10092000528143813481258196818781DACF8FEB93
:1009300096E00895282F86E393E0A0E0BB2730E0FF
:10094000220F331F820F931FA11DB11DABBFFC01EE
:10095000879196910895CF93DF9300D01F92CDB7E2
:10096000DEB7FB014081518162817381FC012481EA
:10097000211104C040835183628373830F900F90D1
:100980000F900F90DF91CF910895FC01848188230F
:1009900051F085819681A781B085FB018083918389
:1009A000A283B383089580819181A281B381F5CF21
:1009B000FC0114820895FC0114820895CF93DF9303
:1009C000FC01EB0188819981AA81BB8121E024830C
:1009D00085839683A783B08780839183A283B38323
:1009E000DF91CF910895CF93DF9300D01F92CDB7C1
:1009F000DEB7FB014081518162817381FC0124815A
:100A0000211104C040835183628373830F900F9040
:100A10000F900F90DF91CF910895FC01848188237E
:100A200051F085819681A781B085FB0180839183F8
:100A3000A283B383089580819181A281B381F5CF90
:100A4000FC0114820895CF93DF93FC01EB018881B0
:100A50009981AA81BB8121E0248385839683A78322
:100A6000B08780839183A283B383DF91CF91089570
:100A7000FC01DB01808581111DC07C9111966C9178
:100A8000119712965C91129713964C9113971496A6
:100A90003C91149715962C91159716969C91169744
:100AA00017968C91708361835283438334832583AB
:100AB000968387830895FC01DB0180858823F1F00C
:100AC000718562855385448535852685978580891E
:100AD0007C9311966C93119712965C9312971396D0
:100AE0004C93139714963C93149715962C93159743
:100AF00016969C93169717968C9308957081618132
:100B0000528143813481258196818781E1CFFC0127
:100B100010860895FC0110860895FC01DB017C918C
:100B200011966C91119712965C91129713964C91B5
:100B3000139714963C91149715962C911597169629
:100B40009C91169717968C91A1E0A0877187628778
:100B500053874487358726879787808B7083618387
:100B60005283438334832583968387830895FC01CE
:100B7000DB01808581111DC07C9111966C911197CC
:100B800012965C91129713964C91139714963C9180
:100B9000149715962C91159716969C911697179663
:100BA0008C9170836183528343833483258396833E
:100BB00087830895FC01DB0180858823F1F071852E
:100BC00062855385448535852685978580897C9304
:100BD00011966C93119712965C93129713964C93FF
:100BE000139714963C93149715962C931597169675
:100BF0009C93169717968C9308957081618152810A
:100C000043813481258196818781E1CFFC01DB011D
:100C10007C9111966C91119712965C911297139694
:100C20004C91139714963C91149715962C91159707
:100C300016969C91169717968C91A1E0A0877187C4
:100C4000628753874487358726879787808B708391
:100C500061835283438334832583968387830895F6
:100C6000FC01248121110AC0FB0140815181628174
:100C70007381FC0140835183628373830895FC0177
:100C80008481882351F085819681A781B085FB01FD
:100C900080839183A283B383089580819181A2810F
:100CA000B381F5CFFC0114820895CF93DF93FC014B
:100CB000EB0188819981AA81BB8121E0248385830E
:100CC0009683A783B08780839183A283B383DF91C8
:100CD000CF910895FC01248121110AC0FB014081BC
:100CE000518162817381FC014083518362837383EC
:100CF0000895FC018481882351F085819681A78124
:100D0000B085FB0180839183A283B38308958081A2
:100D10009181A281B381F5CFCF93DF93FC01EB01E9
:100D200088819981AA81BB8121E024838583968370
:100D3000A783B08780839183A283B383DF91CF9110
:100D40000895FC012281211106C0FB01208131811F
:100D5000FC01318320830895FC018281882331F0D6
:100D600083819481FB0191838083089580819181A7
:100D7000F9CFFC0112820895FC0112820895FC0152
:100D8000DB018D919C9121E0228394838383918365
:100D900080830895FC012281211106C0FB0120817E
:100DA0003181FC01318320830895FC0182818823F5
:100DB00031F083819481FB01918380830895808148
:100DC0009181F9CFFC01DB018D919C9121E022837F
:100DD00094838383918380830895FC012181211171
:100DE00004C0FB012081FC0120830895FC01818166
:100DF000882321F08281FB01808308958081FBCFCD
:100E0000FC0111820895FC0111820895FC01DB01AF
:100E10008C9191E09183828380830895FC012181EC
:100E2000211104C0FB012081FC0120830895FC01F5
:100E30008181882321F08281FB0180830895808154
:100E4000FBCFFC0111820895FC01DB018C9191E044
:100E50009183828380830895FC018181882311F02E
:100E60008281089580810895EF92FF921F93CF931E
:100E7000DF93EC01CB017A010E942C07182FC701E8
:100E80000E942C07812B888319821A82CE01DF9160
:100E9000CF911F91FF90EF900895CF93DF93EC01D6
:100EA000CB010E942C079981911101C08883CE014A
:100EB000DF91CF910895EF92FF921F93CF93DF932D
:100EC000EC01CB017A010E942C07182FC7010E9468
:100ED0002C078123888319821A82CE01DF91CF915A
:100EE0001F91FF90EF900895CF93DF93EC01CB011A
:100EF0000E942C07888319821A82DF91CF9108956E
:100F0000CF93DF93EC01CB010E942C0791E089275E
:100F1000888319821A82CE01DF91CF9108952F9292
:100F20003F924F925F926F927F928F929F92AF9279
:100F3000BF92CF92DF92EF92FF920F931F93CF93C6
:100F4000DF93CDB7DEB7A7970FB6F894DEBF0FBE1D
:100F5000CDBF4C018091F00889838091F1088A838C
:100F60008091F2088B838091F3088C838091F40840
:100F70008D838091F5088E838091F6088F83809110
:100F8000F708888719861A861B861C861D861E868A
:100F90001F86188A198A340110E3610E711CBE0184
:100FA0006F5F7F4FC3010E946404C40102969C8F4F
:100FB0008B8FD4019D96BEA3ADA3BD01CE0101963A
:100FC0000E947407BE016F5F7F4FCE0142960E9460
:100FD0008007F40183A5882381F154A4CE014296B1
:100FE0000E942C0791E0511090E098239D8B1E8A5F
:100FF0001F8A4B8D5C8DBE016B5E7F4FCE01489684
:101000000E945B07CE0148960E942C078823B9F006
:10101000F40183A5811102C081E082A7D401579613
:101020008C915797811102C056961C92B301C4014E
:101030008F5B9F4F0E94640441C052A4CFCF6B8D41
:101040007C8DCE0101960E947407BE016F5F7F4FB9
:10105000CE0142960E948007CE0142960E942C0744
:10106000F401F3A5FCA3882309F447C0D4019196A9
:101070008C919197811117C059961C9259975A9645
:101080001C925A975B961C925B975C961C925C979D
:101090005D961C925D975E961C925E975F961C9281
:1010A0005F9790961C92F4018789811101C0168A7E
:1010B000FCA1F11103C0D4019A961C926B8D7C8D1A
:1010C0008DA19EA10E944D07A7960FB6F894DEBF92
:1010D0000FBECDBFDF91CF911F910F91FF90EF9089
:1010E000DF90CF90BF90AF909F908F907F906F9048
:1010F0005F904F903F902F900895BCA1BB2309F4BF
:1011000063C0F40184A58130C9F6F401EF5BFF4FA1
:101110008085882309F45CC02184B285BD8FA385B6
:10112000AE8FB485BF8FA585A8A3B685B9A3A785C3
:10113000AAA3B089BBA3F4018585882309F458C00C
:101140002685378540895189628973898489958983
:10115000A22CBD8CCE8CDF8CE8A0F9A00AA11BA12B
:101160000E94C424D401D896EC91D897EE2309F4B8
:1011700048C0D9963C90F401F99641805280638032
:101180007480B581A68117811FA3A32CB42CC52C14
:10119000D62CE72CFB2E0A2F0E94D62411F00CF03F
:1011A00043C0ACA1A11104C082E0D4019A968C93F3
:1011B000F4018789811102C081E0868BB4016B5FE5
:1011C0007F4FC401499636CFD4019A968C919BCF1C
:1011D0002080A181AD8FB281BE8FA381AF8FB481FA
:1011E000B8A3A581A9A3B681BAA3A781ABA3A3CFB6
:1011F00025813681478150856185728583859485F7
:10120000A7CFF40130A841A852A863A874A8B5A933
:10121000A6A9F7A9FFA3A32CB42CC52CD62CE72C88
:10122000FB2E0A2F1F2FB8CF232D342D452D562DE1
:10123000672D7B2F8A2F9FA1A22CBD8CCE8CDF8C9B
:10124000E8A0F9A00AA11BA10E94CD2429833A831A
:101250004B835C836D837E838F83988719861A8680
:101260001B861C861D861E861F86188A198ABE014B
:101270006F5F7F4FC40149960E9464041FCF2F9275
:101280003F924F925F926F927F928F929F92AF9216
:10129000BF92CF92DF92EF92FF920F931F93CF9363
:1012A000DF93CDB7DEB7A7970FB6F894DEBF0FBEBA
:1012B000CDBF8C013C018BEE681A8EEF780AB80125
:1012C0006D5C7E4FCE0101960E947407BE016F5F78
:1012D0007F4FCE0104960E948007A301BE016C5F80
:1012E0007F4FCE0107960E945B07BE01695F7F4F6B
:1012F000C801865A9E4F0E944D0768019EEEC91A8A
:101300009EEFD90AB601C80187599E4F0E944D072A
:101310005801E6EDAE1AEEEFBE0A7801F3EDEF1AD2
:10132000FEEFFF0AB701CE0143960E947407BE018B
:101330006D5E7F4FCE0146960E948007B8016E5BBE
:101340007E4FCE0107960E947407BE01695F7F4FF2
:10135000CE010A960E94800728018AE9481A8EEF7A
:10136000580AB201CE0101960E947407BE016F5F58
:101370007F4FCE0104960E948007AE01465F5F4F0B
:10138000BE016C5F7F4FCE010D960E945B07A801E6
:101390004C5D5E4FBE01635F7F4FCE0140960E9461
:1013A0005B07AE014A5E5F4FBE01605F7F4FCE01BB
:1013B00049960E945B07A501BE01675E7F4FCE0183
:1013C0004C960E945B07A601BE01645E7F4FCE0172
:1013D0004F960E945B0748019DE9891A9EEF990A82
:1013E000BE01615E7F4FC4010E944D07B701CE016F
:1013F00043960E947407BE016D5E7F4FCE014696F4
:101400000E948007B8016B5B7E4FCE0107960E9459
:101410007407BE01695F7F4FCE010A960E94800764
:10142000B401CE0101960E947407BE016F5F7F4F29
:10143000CE0104960E948007AE01465F5F4FBE0159
:101440006C5F7F4FCE010D960E945B07A801495D3E
:101450005E4FBE01635F7F4FCE0140960E945B07E7
:10146000AE014A5E5F4FBE01605F7F4FCE0149967D
:101470000E945B07A501BE01675E7F4FCE014C96BF
:101480000E945B07A601BE01645E7F4FCE014F96AE
:101490000E945B07BE01615E7F4FC2010E944D0743
:1014A0001801E8EB2E1AEEEF3E0AA701B101CE01BA
:1014B00001960E945B07CE0101960E942C078823AB
:1014C00041F0F801ED56FE4F8181811102C081E0AB
:1014D0008083B701CE0107960E947407BE01695F41
:1014E0007F4FCE010A960E948007A501BE01665F6C
:1014F0007F4FCE010D960E945B07B601CE0101968B
:101500000E947407BE016F5F7F4FCE0104960E9458
:101510008007AE01435F5F4FBE016C5F7F4FCE011E
:1015200040960E943407CE0140960E942C078823E3
:1015300039F0F801ED56FE4F8181811101C0108212
:10154000C801885E9E4F9BA38AA3AC01B501CE0162
:1015500046960E945B07F801E55EFE4FFFA3EEA3EF
:10156000AF01B501CE0140960E945B074801FFED37
:101570008F1AFEEF9F0AA401B501CE010A960E94C0
:101580005B07280182EE481A8EEF580AA201B501C6
:10159000CE0104960E945B07AE014C5F5F4FB8011D
:1015A0006D567E4FCE0107960E943407AE01465F0E
:1015B0005F4FBE01695F7F4FCE010D960E943407D9
:1015C000AE01405F5F4FBE01635F7F4FCE01439628
:1015D0000E943407AE014A5E5F4FBE016D5E7F4FD1
:1015E000CE0149960E943407A801405D5E4FB601C6
:1015F000CE0101960E945B07AE01475E5F4FBE01C0
:101600006F5F7F4FCE014C960E945B07F801E05A56
:10161000FE4FFDA3ECA3BE01645E7F4FCF010E948D
:101620004D075801F5EBAF1AFEEFBF0AA701B50150
:10163000CE0104960E945B07A2016AA17BA1CE01A4
:1016400001960E943407AE014C5F5F4FBE016F5F91
:101650007F4FCE0107960E943407CE0107960E9465
:101660002C07882341F0F801E159FE4F8181811157
:1016700002C081E08083B501CE0104960E94740708
:10168000BE016C5F7F4FCE0107960E948007A701C5
:10169000BE01695F7F4FCE010A960E945B07A401DD
:1016A0006EA17FA1CE0101960E943407AE01465F74
:1016B0005F4FBE016F5F7F4FCE010D960E943407D2
:1016C000CE010D960E942C07882339F0F801E159CC
:1016D000FE4F8181811101C01082A701B101CE01AD
:1016E00004960E945B07A401B201CE0101960E94FC
:1016F0003407AE014C5F5F4FBE016F5F7F4FCE017D
:1017000007960E943407BE01695F7F4FC8018E585B
:101710009E4F0E944D076CA17DA1C80104960E94B6
:101720004D07F801878581110BC017828AEC8087ED
:101730008AE981878BE3828713861486158616864D
:10174000C80102960E948F07F801EC5AFF4F818171
:10175000811102C081E08083B801685E7F4F28015B
:10176000F4E94F1AFEEF5F0AC2010E944D074801DB
:1017700081E0880E981EB801655E7F4FC4010E940B
:101780006404B301CE0101960E947407BE016F5F2D
:101790007F4FCE0104960E948007BE016C5F7F4F91
:1017A000C8018F579E4F0E944D07B201CE010D9682
:1017B0000E947407BE01635F7F4FCE0140960E9476
:1017C0008007A601BE01605F7F4FCE0143960E9455
:1017D0005B07B601CE0101960E947407BE016F5FE0
:1017E0007F4FCE0104960E948007580193E7A91A03
:1017F0009EEFB90AAE014C5F5F4FB501CE0107966F
:101800000E945B07A301BE01695F7F4FCE010A966C
:101810000E945B07AE014D5E5F4FBE01665F7F4F6A
:10182000CE0146960E943407BE016A5E7F4FC80112
:101830008C579E4F0E944D07B201C80189579E4F99
:101840000E944D07A601B701CE0101960E945B07D9
:10185000BE016F5F7F4FC8018B589E4F0E944D079E
:10186000B501CE0101960E947407BE016F5F7F4FE4
:10187000CE0104960E948007BE016C5F7F4FC801B5
:10188000875A9F4F0E944D07F801E45AFF4F808509
:1018900081110BC010828AEC81838AE982838BE3F9
:1018A00083831482158216821782C801895A9F4F3A
:1018B0000E948F07F801E755FF4F8181811102C017
:1018C00081E08083C80183599F4F0E942C078823A1
:1018D00031F0F5018181811102C081E08083B8017E
:1018E00060597F4FC4010E946404B501C80182554C
:1018F0009F4F0E944D07F801EF54FF4F80858111E3
:101900000BC010828AEC81838AE982838BE3838314
:101910001482158216821782C80184559F4F0E9437
:101920008F07F801E250FF4F8181811102C081E0F1
:101930008083C8018E539F4F0E942C07882329F073
:10194000F5018181811101C01082B8016B537F4F75
:10195000C4010E946404A7960FB6F894DEBF0FBEC0
:10196000CDBFDF91CF911F910F91FF90EF90DF904E
:10197000CF90BF90AF909F908F907F906F905F902F
:101980004F903F902F900895CF93DF93EB010E94EB
:101990002C078883DF91CF910895A8E0B2E01896D4
:1019A000ED91FC911997309751F011968C91119708
:1019B000823049F150F4882301F18130F1F01A9618
:1019C00083E0A03CB80759F70895833021F18430B3
:1019D000B1F78085882399F381858083828581830F
:1019E00083858283848583838585848386858583B7
:1019F0008785868380898783E2CF81818823F9F276
:101A000082818083DCCF82818823C9F283819481A3
:101A100091838083D4CF8481882389F24581568144
:101A2000678170854083518362837383C8CF0F932E
:101A30001F93882339F060E070E080E090E01F9110
:101A40000F91089506E313E020E033272BBFF80140
:101A50000791169160177107B0F484E393E0A0E05A
:101A6000BB27ABBFFC0187919691660F771F660F6E
:101A7000771F680F791FFB0125913491FB01329686
:101A80008491B901DBCF60E070E0D8CF0E94170DE0
:101A9000672B59F0853148F499E0899FF0011124B2
:101AA000EA53FA4F808590E0089590E080E0089531
:101AB0000F931F93CF938A010E94170DE82FCB013C
:101AC0000097B1F0E531A0F429E0E29FF001112484
:101AD000EA53FA4FC085CC2359F00480F581E02DFC
:101AE000B80119958C2F90E0CF911F910F91089517
:101AF00090E080E0F9CF9E5FFC0110820895EF92A4
:101B0000FF920F931F93CF93DF93CDB7DEB7CC5FD8
:101B1000D2400FB6F894DEBF0FBECDBFFB013081BF
:101B20003F3708F03EE7FB01BE016F5F7D4FDB01F1
:101B300020E0231751F04281518145275427452742
:101B40004D935D932F5F3296F4CF30E0DE01119616
:101B500050E040E07D014217530748F4FB0101913A
:101B60001191BF010D931D934F5F5F4FF4CFD901CA
:101B7000AA0FBB1FAE0DBF1D1D921C92DC01BE5FE4
:101B800041E04C93C150DE4F39832883CF5FD14071
:101B9000119680E092E0F70101900D920197E1F734
:101BA000C450DD4F0FB6F894DEBF0FBECDBFDF913E
:101BB000CF911F910F91FF90EF900895EF92FF92B8
:101BC0000F931F93CF93DF93CDB7DEB7CC5FD24097
:101BD0000FB6F894DEBF0FBECDBFFB0130813F379B
:101BE00008F03EE7FB01BE016F5F7D4FDB0120E0A7
:101BF000231751F0428151814527542745274D93A2
:101C00005D932F5F3296F4CF30E0DE01119650E005
:101C100040E07D014217530748F4FB010191119107
:101C2000BF010D931D934F5F5F4FF4CFA901440F88
:101C3000551F4E0D5F1DFA0111821082C150DE4FFB
:101C400039832883CF5FD14020E032E0F701DC0107
:101C500001900D9221503040D9F7C450DD4F0FB69E
:101C6000F894DEBF0FBECDBFDF91CF911F910F91D2
:101C7000FF90EF9008958F5F9E4FFC0110820895B2
:101C8000FC012181211108C021E0FB0130813111CB
:101C900001C020E0FC0120830895FC0181E0DB010C
:101CA0009C91911101C080E091E0918382838083B7
:101CB000089520911409209530E0F901EA53FB4F73
:101CC000908190952A533C4FD9018C914091FC060C
:101CD0005091FD0642505109E4E1F9E031969F012F
:101CE000245139402417350770F420819227292F79
:101CF00030E0D901AA53BB4F9C9198272A533C4FFF
:101D0000D9018C91EBCF089523E030E03093FD06AC
:101D10002093FC06E4E1F9E09091DD08908380587F
:101D20008183628308950F931F93582F577001E0AA
:101D300010E020E030E004C0000F111F221F331F0D
:101D40005A95D2F723E0969587952A95E1F799273A
:101D5000E091E708F091E808662321F0E091ED08B2
:101D6000F091EE08E80FF91F8081442329F0082B39
:101D700000831F910F91089500950823F9CF2F92AA
:101D80003F924F925F926F927F928F929F92AF920B
:101D9000BF92CF92DF92EF92FF920F931F93CF9358
:101DA000DF93CDB7DEB7C655D1090FB6F894DEBFC5
:101DB0000FBECDBF10E000E0F801EE0FFF1FE359AA
:101DC000F74F0190F081E02D309749F041E080819C
:101DD000811101C040E060E0C8010E94930E0F5FD6
:101DE0001F4F0833110541F7E090DE08F090DF083F
:101DF0002DE238E02D963FAF2EAF2D978701005C86
:101E00001F4FF701D9018D919D919D01009729F0F8
:101E1000DC018D919C919183808332960E171F0770
:101E200089F7D12CC12CF601EE0FFF1FE354F84FB8
:101E30000190F081E02D309749F041E080818111DF
:101E400001C040E061E0C6010E94930EBFEFCB1AD3
:101E5000DB0AE8E3CE16D10431F74DE757E0E09115
:101E6000EA08F091EB089F01205C3F4FDA018D9169
:101E70009D91AD01009729F0DC018D919C9191839A
:101E800080833296E217F30789F7E5E5F7E02F96AE
:101E9000FFAFEEAF2F97F80128E6E20EF11C25E523
:101EA00037E0D9018D919D919D01009729F0DC01CA
:101EB0008D919C91918380833296EE16FF0689F76F
:101EC000EDE2F7E06196FFAFEEAF6197E091E108D8
:101ED000F091E2089F01205B3F4F0DE217E0D8012F
:101EE0008D919D918D01009749F0DC014D915D919F
:101EF0006D917C9140835183628373833496E217A2
:101F0000F30769F7E5E0F7E02B96FFAFEEAF2B970D
:101F1000E091E408F091E5089F0120563F4F85E0ED
:101F200097E0DC01CD90DD90CD01C114D104F1F03A
:101F3000D601EC901196FC90119712960C91129785
:101F400013961C91139714967C91149715966C9187
:101F5000159716965C91169717964C91E082F18230
:101F600002831383748365835683478338962E17C1
:101F70003F07B9F68091030790910407DC01ED91CA
:101F8000FC910084F185E02D199518161906B4F519
:101F90008091140A9091150A8F3F910509F070F510
:101FA0008091030790910407DC01ED91FC9102847C
:101FB000F385E02D19952091140A3091150AA90195
:101FC0004F5F5F4F5093150A4093140A2C5E364FB3
:101FD000F90180832FB7F89480910C0990910D0935
:101FE000A0910E09B0910F092FBF8093F80690932E
:101FF000F906A093FA06B093FB06BCCF4091140AF1
:102000005091150A4115510509F466C090911409C3
:102010008091DD08981719F00E944602EFCF4230F8
:10202000510508F462C18091150964E0862E912C57
:10203000A12CB12C813409F168F4813030F0873063
:10204000B8F08F50823008F41AC188248A94982CF2
:10205000540113C0E9E08E2E912CA12CB12C8334B5
:1020600061F008F430C1843409F417C1853469F78C
:10207000F8E08F2E912CA12CB12C61E086169606EB
:10208000A104B10448F681149104A104B10429F01B
:1020900084014815590508F02CC12FB7F894809198
:1020A0000C0990910D09A0910E09B0910F092FBF55
:1020B0004091F8065091F9066091FA067091FB067E
:1020C000841B950BA60BB70B0997A105B10520F052
:1020D0001092150A1092140A4091E7085091E808EE
:1020E00030E020E0F901EE0FFF1FE359F74F0190B8
:1020F000F081E02D309799F0D90183E0B695A7954E
:102100008A95E1F7A40FB51F8C9190E0622F67705C
:1021100002C0959587956A95E2F7817080832F5F5D
:102120003F4F28333105F1F68091DE089091DF08AA
:10213000BC01605C7F4FDC012D96EEADFFAD2D97AD
:10214000219131912D96FFAFEEAF2D9721153105DD
:1021500031F04D915C911197F901518340831296B2
:102160006A177B0749F7FB0188599F4F2F96AEAD41
:10217000BFAD2F974D915D912F96BFAFAEAF2F970B
:102180004115510529F020813181DA012D933C93CD
:1021900032968E179F0751F7E091E108F091E2081F
:1021A000CF01805B9F4F6196AEADBFAD61972D9122
:1021B0003D916196BFAFAEAF61972115310551F0EA
:1021C0004081518162817381D9014D935D936D93FB
:1021D0007C93139734968E179F0729F7E091E408B4
:1021E000F091E508CF0180569F4F2B96AEADBFAD65
:1021F0002B97ED90FD902B96BFAFAEAF2B97E114D0
:10220000F104F1F000811181728163815481458173
:1022100036812781D7010C9311961C931197129642
:102220007C93129713966C93139714965C93149760
:1022300015964C93159716963C93169717962C93D4
:1022400038968E179F0789F6CA5ADF4F0FB6F89453
:10225000DEBF0FBECDBFDF91CF911F910F91FF90D9
:10226000EF90DF90CF90BF90AF909F908F907F9036
:102270006F905F904F903F902F900C94CD0C473013
:10228000510598F180901A09912CB12CA12CF9E0FC
:102290008F0E911CA11CB11CF0CE4430510528F1C9
:1022A0002091160930911709322723273227A3E0FE
:1022B000B0E00E9420244B015C0126E0820E911CBC
:1022C000A11CB11CDACE4830510578F080901A0973
:1022D00090901B09982489249824B12CA12C3AE0D1
:1022E000830E911CA11CB11CC8CE812C912C5401D1
:1022F000C4CED09015098FEB8D0D853000F19092F2
:10230000FD068092FC060E94590EB501A4014250C0
:102310005109610971094C5E564FDA012C91B1E007
:102320008B1A9108A108B108F401EC5EF64F3081D8
:102330002327322723272817390709F06DCE0250AB
:1023400011091093FD060093FC0660901609709029
:1023500017097624672476248091160900911809BC
:1023600010911909102701271027E0901709F09004
:102370001809FE24EF24FE24C0901909EFE0DE16B0
:1023800009F4A9C5ED15D8F1F3E0DF1609F492C1FF
:10239000FD1568F021E0D21609F426C432E0D31608
:1023A00009F4ACC461E070E08D2D90E025C045E0FB
:1023B000D41609F471C5D41608F429C556E0D5120F
:1023C000F1CF2091E0088091E30890E0880F991FF9
:1023D000E22FF0E08E0F9F1F4091E608B4E04B9F84
:1023E000A0011124480F591F6416750608F455C042
:1023F00062E070E086E090E00E94840E5BC062E4E0
:10240000D61609F408C76D15E8F070E1D71609F47F
:1024100074C281E4D812C6CFD092150981E08093AE
:1024200016098EE78093170980E00E949A04909322
:1024300018098093190986E090E09093FD06809337
:10244000FC0638C094E4D91609F46CC6D91608F411
:10245000F7C5A5E4DA12A6CFD09215098EE78093CE
:10246000160981E2E7ECF6E09E012F5F3F4FD901AC
:1024700001900D928A95E1F7A7E1B9E0A901CA019F
:10248000821B930BFA016191AF01FD01E451F94008
:10249000662309F408C76D93F2CF6E167F06D8F451
:1024A000660C771CE091DE08F091DF08E60DF71D61
:1024B000118300838091FC069091FD060296813085
:1024C000914008F466C58091150964E070E090E0E1
:1024D0000E94840E5EC568167906F0F5A80170E0CA
:1024E00060E08091E1089091E20860FC1CC09301DB
:1024F0002E1B3F0BF901EE0FFF1FEC7FF370E80F6F
:10250000F91F80819181A281B381AA27BB27BA01DB
:1025100055274427842B952BA62BB72B808391839B
:10252000A283B383C7CFE095F095E60DF71DEE0FBC
:10253000FF1FEC7FF370E80FF91F008111812281EA
:10254000338100271127042B152B262B372B0083D3
:10255000118322833383AECF930123703327480145
:10256000B12CA12CC12CD12C7601E091E408F09182
:10257000E5082115310549F5681A790A660C771CBA
:1025800038EF632237E07322E60DF71D508061803B
:1025900072801381B481A581940140E050E060E035
:1025A00070E080E090E000E30E948E2425292083E3
:1025B000632A6182742A7282152B1383B62BB4832B
:1025C000A72BA5838683978375CF2130310541F5ED
:1025D0004FEF641A740A681A790A660C771C58EF70
:1025E000652257E07522E60DF71D508061807280EC
:1025F0001381B681A7819401A501B601C70100E24C
:102600000E948E24522A5082632A6182742A728226
:10261000152B1383648375838B2B86839A2BD3CFDF
:102620002230310529F562E0660E711C681A790ABC
:10263000660C771C78EF672277E07722E60DF71DAE
:102640005080618074801581B681A7819401A501B5
:10265000B601C70100E10E948E24522A5082632AEB
:10266000618242835383762A7482172B1583D4CFD9
:10267000A3E06A0E711C681A790A660C771CB8EF21
:102680006B22B7E07B22E60DF71D52814381348136
:10269000258196818781808291825A2952834B2994
:1026A00043833C2934832D2925839E2996838F29B2
:1026B000878300CFC801019763E070E08D379105F3
:1026C000C8F44301800E911E2091E008E091E308D8
:1026D000F0E0EE0FFF1FE20FF11D8091E60834E0FD
:1026E000839FC00111248E0F9F1F8816990628F022
:1026F00062E070E083E090E07FCE000F111F0D5F7D
:102700001F4F1093FD060093FC0634E1E32E39E0E1
:10271000F32ED7011196CD0184519940801791076E
:1027200010F41C92F7CF83E08093150903500093B7
:102730001609C090E408D090E508A090E108B09098
:10274000E208A091DE08B091DF08BEAFADAFA22FC6
:10275000B0E02796BFAFAEAF279783E090E01C01B3
:102760002E1A3F0A2D01409450948614970409F4C0
:10277000A1CE2796AEADBFAD27976A167B0660F453
:102780009301220F331FADADBEAD2A0F3B1FD90100
:102790008C9111963C911CC06E167F0680F560FCF2
:1027A00024C0C3012796AEADBFAD27978A1B9B0BF4
:1027B000880F991F8C7F93708A0D9B1DDC014D91B2
:1027C0005D916D917C91AB0166277727842F352F22
:1027D000D70113963C93139714968C93B2E0EB0EAB
:1027E000F11C2FEF621A720AC0CF9201260D371D1D
:1027F000220F331F2C7F33702A0D3B1DC8CF83015E
:10280000037011270115110521F583010E1B1F0B04
:10281000000F111F087F17700C0D1D1DD8012C9182
:1028200011963C91119712964C91129713965C91C8
:10283000139714966C91149715967C91159716968C
:102840008C91169717969C9100E30E94A924822FE1
:10285000BFCF0130110511F50E1B1F0B060D171D03
:10286000000F111F087F17700C0D1D1DD8012C9132
:1028700011963C91119712964C91129713965C9178
:10288000139714966C91149715967C91159716963C
:102890008C91169717969C9100E2D7CF02301105C4
:1028A00011F50E1B1F0B060D171D000F111F087FC2
:1028B00017700C0D1D1DD8012C9111963C9111978C
:1028C00012964C91129713965C91139714966C91F3
:1028D000149715967C91159716968C9116971796C6
:1028E0009C9100E1B2CF9101260D371D220F331FBD
:1028F000287F37702C0D3D1D4ACFC80101978B37BB
:10290000910540F420911A09C801880F991F2817D2
:10291000190629F063E070E080E190E06DCDD3010D
:10292000A00FB11F2796BFAFAEAF27972090E0084A
:10293000A091E308B0E0AA0FBB1F312CA20DB31D7C
:102940008091E608E4E08E9FC00111248A0F9B1F4E
:102950002796EEADFFAD2797E817F90718F062E06C
:1029600070E0DACF86E090E09093FD068093FC065D
:10297000D0921509709216096092170910921809E1
:1029800000931909E090E408F090E508E091E1086F
:10299000F091E2082996FFAFEEAF2997E091DE08AB
:1029A000F091DF086396FFAFEEAF639724E1422E0C
:1029B00029E0522E83E090E0FC01EA1BFB0B6596B8
:1029C000FFAFEEAF6597F101E095F0956796FFAF29
:1029D000EEAF67972796EEADFFAD27976E167F0691
:1029E00009F4D7C2F20147818085142F082F6214A1
:1029F000730490F4F301EE0FFF1F63962EAD3FAD0D
:102A00006397E20FF31F118300835FEF651A750A66
:102A100062E0460E511CDECF6A167B06D8F5A8018F
:102A200070E060E060FC1FC0F301E219F309EE0FF3
:102A3000FF1FEC7FF37029968EAD9FAD2997E80FAD
:102A4000F91F008111812281338122273327BA01A6
:102A500055274427402B512B622B732B40835183E6
:102A600062837383D2CF6796EEADFFAD6797E60DB5
:102A7000F71DEE0FFF1FEC7FF37029962EAD3FADD3
:102A80002997E20FF31F00811181228133810027F2
:102A90001127E0CFF301E370FF27980150E040E0F9
:102AA00060E070E0CB012DAF3EAF4FAF21965FAF3E
:102AB000219722966FAF229723967FAF2397249674
:102AC0008FAF249725969FAF2597309739F5F3015F
:102AD000EA1BFB0BEE0FFF1FE87FF770EE0DFF1DEB
:102AE0009080A180B280C380D480158140E050E006
:102AF00060E070E080E090E000E30E948E242929ED
:102B000020833A2931834B2942835C295383D62A77
:102B1000D482172B15838683978377CFE130F10515
:102B200049F5EA1BFB0BE60DF71DEE0FFF1FE87FD3
:102B3000F770EE0DFF1D9080A180B280C380D6801B
:102B400017812DAD3EAD40E050E060E070E080E0E8
:102B500090E000E20E948E24292920833A293183C3
:102B60004B294283C52AC382648375838D2986835A
:102B7000912BD2CFE230F10531F5EA1BFB0BE60DCC
:102B8000F71DEE0FFF1FE87FF770EE0DFF1D908021
:102B9000A180B480C580D68017812DAD3EAD40E0C8
:102BA00050E060E070E080E090E000E10E948E2460
:102BB000292920833A29318342835383B62AB48258
:102BC000C72AC582D3CF6596EEADFFAD6597E60DFA
:102BD000F71DEE0FFF1FE87FF770EE0DFF1D3DADF7
:102BE00030834EAD418311CFC8010197803D97409E
:102BF00028F063E070E081E090E0FECB2091E908EE
:102C0000C301800F911F62E070E02817190698F346
:102C1000C80123E0969587952A95E1F798012770DA
:102C20003327232B91F403969093FD068093FC06A3
:102C30008091FC069091FD06E4E1F9E08130A1E08D
:102C40009A0728F064E070E0D6CF0496EDCF319675
:102C50009F01245139402817390710F41082F7CF0B
:102C600091E090931509835080931609A090E7088E
:102C7000B090E80870E060E020E0C12CD12C760133
:102C8000C39416012701022E04C0220C331C441CDD
:102C9000551C0A94D2F7FB0143E0F695E7954A9557
:102CA000E1F7E95EF64F3081A301A3E05695479521
:102CB000AA95E1F74F7155274A0D5B1DDA014C913A
:102CC00050E0B62DB77002C055954795BA95E2F71A
:102CD000822D40FF0FC0832B80832F5F283009F4A3
:102CE00020E0EFEF6E1A7E0A6F5F7F4F061717071F
:102CF00041F6E0CB809538233083EFCFC8010197B0
:102D000063E070E0803D974030F52091EF08C3010B
:102D1000800F911F62E070E028171906E0F0C801EB
:102D200033E0969587953A95E1F798012770332718
:102D3000232BA1F403969093FD068093FC068091CB
:102D4000FC069091FD06E4E1F9E0813021E0920774
:102D500038F064E070E082E090E04ECB0496EBCF78
:102D600031969F01245139402817390710F41082F9
:102D7000F7CF92E0909315098350809316096091E4
:102D8000ED087091EE0850E040E0B12CC12CD12C40
:102D90007601C394160127010B2C04C0220C331CAE
:102DA000441C551C0A94D2F7FA0183E0F695E79586
:102DB0008A95E1F7E95EF64FA080930193E036959E
:102DC00027959A95E1F7260F372F311DD9012C91C0
:102DD00030E0B62DB77002C035952795BA95E2F769
:102DE000822D20FF10C08A298083B394E8E0BE12B0
:102DF00001C0B12CFFEF6F1A7F0A4F5F5F4F0417BE
:102E0000150741F657CB8095A822A082EECFC801C6
:102E1000019763E070E08D37910550F42091EC0844
:102E2000C301800F911F2817190628F462E070E093
:102E300084E090E0E1CAC801880F991F039690933F
:102E4000FD068093FC06E4E1F9E0DF0111969D01A7
:102E5000245139402817390710F41C92F7CF94E019
:102E600090931509835080931609660C771CA091E6
:102E7000EA08B091EB08A60DB71D01501109329672
:102E80000F3F100709F416CB8C9111969C91119766
:102E9000129691838283F1CF01153FEF130729F03A
:102EA00063E070E00115110549F48091E908815053
:102EB000990B8615970528F462E070E085E090E0B4
:102EC0009BCA41E001151F4F09F040E060E0C301DB
:102ED0000E94930EEFCA9801E3E036952795EA9594
:102EE000E1F7822FA80147705527452B11F081E0AB
:102EF000820F980121503109203B374020F49091F6
:102F00001A09981729F063E070E08FE090E074CA26
:102F10002091E908C301800F911F2817190618F4A2
:102F200062E070E0F2CF86E090E09093FD0680933F
:102F3000FC068FE0809315097092160960921709BC
:102F40001093180900931909F12CE12CD12CF701E9
:102F500073E0F695E7957A95E1F7EC5EF64F4781D9
:102F600050E00D2C02C0559547950A94E2F7417048
:102F700060E0C3018E0D9F1D0E94930ED39478E0F4
:102F8000D71201C0D12C8FEFE81AF80A0E151F05D1
:102F9000F1F60091FC061091FD06780122E0E20EA8
:102FA000F11CF092FD06E092FC060E94590EF80119
:102FB000EC5EF64F908381838091020787FD11C0FC
:102FC00061E00E9464028091FE069091FF068230CB
:102FD000910538F0880F991F880F991F0597019761
:102FE000F1F78091030790910407DC01ED91FC91CA
:102FF0000280F381E02DA70164E179E019958091C9
:10300000030790910407DC01ED91FC910680F781A4
:10301000E02D19958091FE069091FF068230910572
:1030200038F0880F991F880F991F05970197F1F7BE
:103030008091020787FD4CC860E00E94640248C886
:10304000811165C0C0901909D0901A090E949A0494
:10305000009709F45CC0E816F90608F058C0DC24B3
:10306000CD24DC24C816D90608F051C0CE14DF04E4
:1030700008F44DC057016FE1862E69E0962E10E0EE
:1030800000E0B50180E00E94460D9C01200F311F39
:10309000255F3F4F2130314098F4892B59F0A4012E
:1030A000B50180E00E94580D009721F0880E991E0E
:1030B000080F191FC50101967501C816D90628F514
:1030C000C8010B969093FD068093FC0683E48093E1
:1030D00015098EE780931609F0921709E0921809F6
:1030E0008091FA089091FB082091FC083091FD082E
:1030F0003093190920931A0990931B0980931C0996
:1031000010931D0900931E09D5C95C01BACF83E055
:1031100090E09093FD068093FC0683E4809315096C
:1031200081E876C0B5E16B16710408F068C0C30190
:10313000880F991F860D971DA8E1B9E08E010F5FDA
:103140001F4FF8019F01201B310B2817390718F476
:103150002D912193F7CFB12CA12C512CD12CC12C26
:103160004BE0E42EF12C6A147B0431F1F80140802D
:1031700081808281982C882EB401842D0E94460D76
:10318000009791F08E0D9F1D81309140A8F4A7010A
:103190004C5E564FB401842D0E94580D009721F0CB
:1031A000E80EF91EC80ED91E0D5F1F4F5A2C95014F
:1031B0002F5F3F4F5901D7CFF092FD06E092FC06FA
:1031C00084E4809315098EE78093160910921709FD
:1031D000509218098091FA089091FB082091FC0800
:1031E0003091FD083093190920931A0990931B0917
:1031F00080931C09D0921D09C0921E095BC983E00F
:1032000090E09093FD068093FC06D092150982E829
:10321000809316094FC900911A0910911B091027B4
:1032200001271027093F110548F083E090E09093B3
:10323000FD068093FC06D092150972CFB7010E945B
:10324000170D282FCB01009751F1253140F530E0C3
:1032500049E0429FF001439FF00D1124EA53FA4FD9
:10326000CC20C1F020852223E1F02017110609F0BF
:10327000C0F40190F081E02D6CE179E019958EE7C2
:1032800023E030E03093FD062093FC0692E4909317
:103290001509BECF0280F381E02D1995F0CF81E8AA
:1032A000EFCF82E8EDCFEC5EF64F2DEA2083FC01F4
:1032B000EC5EF64F2EED24830596BFC80F931F9347
:1032C000CF93DF938B01FC01FE5F2081222351F11C
:1032D0009C012F5F3D4F22503E4FD9012D913C91D3
:1032E0002F37310510F02EE730E0622FE8012883F8
:1032F0004081442311F08F5F9D4FFC01D80180E095
:10330000861790F49081329611969C931197AF0195
:1033100042505109EA01998112969C9312978F5F4E
:103320001296EECF9C01D7CF220F331F2F5F3F4F56
:103330002D3F310579F04DEF50E0421B530B70E00B
:1033400060E0C801820F931FDF91CF911F910F9111
:103350000C941926DF91CF911F910F9108950C9431
:1033600087250C9487250C9487250F931F93CF9363
:10337000DF93CDB7DEB7C150D1400FB6F894DEBFB2
:103380000FBECDBF8C01FB0140814F3708F04EE7E7
:1033900050E0C050DF4F59834883C050D1406F5F29
:1033A0007F4FCE0101960E941026C050DF4FE8816A
:1033B000F981C050D14081E090E08C0F9D1FE80F53
:1033C000F91F108281E091E0FE013196D801019051
:1033D0000D920197E1F7CF5FDE4F0FB6F894DEBF95
:1033E0000FBECDBFDF91CF911F910F9108950F9325
:1033F0001F93CF93DF93CDB7DEB7C150D1400FB647
:10340000F894DEBF0FBECDBF8C01FB0140814F376A
:1034100008F04EE750E0C050DF4F59834883C0505A
:10342000D1406F5F7F4FCE0101960E941026C050A1
:10343000DF4FE881F981C050D14081E090E08C0FEE
:103440009D1FE80FF91F1082F801EF5FFE4F81E02A
:103450008083D801AE5FBE4F81E091E0FE013196DE
:1034600001900D920197E1F7CF5FDE4F0FB6F89410
:10347000DEBF0FBECDBFDF91CF911F910F91089599
:10348000FF920F931F93CF93DF938B01FC01EF5FAC
:10349000FE4F2081222319F19C012E5F3E4F2150C7
:1034A0003F4FD901CD91DC91CF37D10510F0CEE758
:1034B000D0E0FC2ED801CC93C11113C04EE750E0F0
:1034C0004C1B5D0BCE01019670E060E0800F911FF8
:1034D000DF91CF911F910F91FF900C9419269C01C1
:1034E000DECF2081BC01222311F06E5F7E4FAE0142
:1034F000C80101960E9410268EE7F812DFCFDF91F7
:10350000CF911F910F91FF9008951F920F920FB6C8
:103510000F9211242F933F938F939F93AF93BF9359
:1035200080910C0990910D09A0910E09B0910F099D
:1035300030910B0923E0230F2D3758F50196A11D7B
:10354000B11D20930B0980930C0990930D09A09352
:103550000E09B0930F098091100990911109A09163
:103560001209B09113090196A11DB11D8093100994
:1035700090931109A0931209B0931309BF91AF91D1
:103580009F918F913F912F910F900FBE0F901F90A1
:10359000189526E8230F0296A11DB11DD2CF1F92C8
:1035A0000F920FB60F9211240BB60F922F933F93E9
:1035B0004F935F936F937F938F939F93AF93BF933B
:1035C000EF93FF9386E19AE00E948F03FF91EF91C2
:1035D000BF91AF919F918F917F916F915F914F912B
:1035E0003F912F910F900BBE0F900FBE0F901F9029
:1035F00018951F920F920FB60F9211240BB60F92CF
:103600002F938F939F93EF93FF93E091260AF0916E
:10361000270A8081E0912C0AF0912D0A82FD1DC0BD
:10362000908180912F0A8F5F8F732091300A8217CB
:1036300041F0E0912F0AF0E0EA5EF54F958F80931C
:103640002F0AFF91EF919F918F912F910F900BBEB9
:103650000F900FBE0F901F9018958081F2CFFC0144
:1036600087E896E091838083128213821482158208
:103670001682178210861186128613861486158686
:1036800016861786108A118A128A138A148A158A56
:10369000168A178A108E118E128E138E148E158E26
:1036A000168E178E10A211A212A213A214A215A296
:1036B00016A217A210A611A612A613A614A615A646
:1036C00016A617A610AA11AA12AA13AA14AA15AA16
:1036D00016AA17AA10AEDF01D99611AE11961C9248
:1036E000119712961C92129713961C921397149688
:1036F0001C92149715961C92159716961C92169765
:1037000017961C92179718961C9211961C92119757
:1037100012961C92129713961C92139714961C9251
:10372000149715961C92159716961C921697179635
:103730001C92179718961C92189719961C92199715
:103740001A961C921A971B961C921B971C961C92F9
:103750001C971D961C921D971E961C921E971F96D5
:103760001C921F9750961C92EE5AFF4F81E0808367
:103770001182128208952F923F924F925F926F9220
:103780007F928F929F92AF92BF92CF92DF92EF92F1
:10379000FF920F931F93CF93DF93E6E1FAE013823A
:1037A000128288EE93E0A0E0B0E084839583A68344
:1037B000B7838FE896E09183808385EC90E09587CE
:1037C000848784EC90E09787868780EC90E0918BEB
:1037D000808B81EC90E0938B828B82EC90E0958BD8
:1037E000848B86EC90E0978B868B118E128E138ED5
:1037F000148EE3EBFAE085EB96E09183808381EA17
:1038000096E09383828387EB9AE00E942F1B8CE0E3
:103810009BE00E942F1B81E69BE00E942F1BE6EBA2
:10382000FBE01082118212821382148215821682AA
:1038300017821092BE0BEFEBFBE010821182128216
:1038400013821482158216821782E7ECFBE0108245
:103850001092C80B1092C90BEAECFBE01082109298
:10386000CB0B1092CC0BEDECFBE010821092CE0B48
:103870001092CF0BE0EDFBE010821092D10B109272
:10388000D20BE3EDFBE010821092D40B1092D50B1B
:10389000E6EDFBE010821092D70B1092D80BE9ED09
:1038A000FBE010821092DA0B1092DB0BECEDFBE0E8
:1038B00010821092DD0B1092DE0BEFEDFBE0108218
:1038C0001092E00B1092E10BE2EEFBE010821092FE
:1038D000E30B1092E40BE5EEFBE010821092E60B96
:1038E0001092E70BE8EEFBE010821092E90B1092C9
:1038F000EA0BEBEEFBE010821092EC0B1092ED0B5A
:10390000EEEEFBE010821092EF0B1092F00BE1EF65
:10391000FBE010821092F20B1092F30BE4EFFBE04D
:1039200010821092F50B1092F60BE7EFFBE010827D
:103930001092F80B1092F90BEAEFFBE01082109254
:10394000FB0B1092FC0BEDEFFBE010821092FE0BD4
:103950001092FF0BE0E0FCE010821092010C10923C
:10396000020CE3E0FCE010821092040C1092050CB3
:10397000E6E0FCE010821092070C1092080CE9E0DF
:10398000FCE0108210920A0C10920B0CECE0FCE0B0
:10399000108210920D0C10920E0CEFE0FCE01082E1
:1039A0001092100C1092110CE2E1FCE010821092C7
:1039B000130C1092140CE5E1FCE010821092160C2E
:1039C0001092170CE8E1FCE010821092190C109292
:1039D0001A0CEBE1FCE0108210921C0C10921D0CF2
:1039E000EEE1FCE0108210921F0C1092200CE1E23C
:1039F000FCE010821092220C1092230C84E2482EDC
:103A00008CE0582EF20110821092250C1092260C98
:103A100097E2692E9CE0792EF30110821092280C17
:103A20001092290C2AE2822E2CE0922EF4011082B0
:103A300010922B0C10922C0C3DE2A32E3CE0B32EE6
:103A4000F501108210922E0C10922F0C40E3C42E20
:103A50004CE0D42EF60110821092310C1092320CF0
:103A600053E3E52E5CE0F52EF70110821092340C42
:103A70001092350C06E31CE0F80110821092370C0E
:103A80001092380C69E37CE0FB01108210923A0C32
:103A900010923B0C4CE35CE0FA01108210923D0C5A
:103AA00010923E0C2FE33CE0F90110821092400C82
:103AB0001092410C82E49CE0FC0110821092430CB5
:103AC0001092440CC5E4DCE018821092460C10926F
:103AD000470CA8E4BCE01C921092490C10924A0CCE
:103AE000E1E0E0934B0C10924C0C10924D0CE8E08E
:103AF000F2E00F2EF7EC2F2EFBE03F2EF02D31865B
:103B000020860F2EFAEC2F2EFBE03F2EF02D338A6D
:103B1000228A0F2EFDEC2F2EFBE03F2EF02D358E4E
:103B2000248E0F2EF0ED2F2EFBE03F2EF02D37A22E
:103B300026A20F2EF3ED2F2EFBE03F2EF02D31AA03
:103B400020AA0F2EF6ED2F2EFBE03F2EF02D33AEE8
:103B500022AEE9EDFBE0F0934D02E0934C02ECED78
:103B60002E2EEBE03E2E3092570220925602EFEDC1
:103B7000FBE0F0936102E0936002F2EE2F2EFBE097
:103B80003F2E30926B0220926A02E5EEFBE0F0934A
:103B90007502E0937402E8EE2E2EEBE03E2E30929A
:103BA0007F0220927E02EBEEFBE0F0938902E0932D
:103BB0008802FEEE2F2EFBE03F2E309293022092E1
:103BC0009202E1EFFBE0F0939D02E0939C02E4EFB0
:103BD0002E2EEBE03E2E3092A7022092A602E7EFB7
:103BE000FBE0F093B102E093B002FAEF2F2EFBE07E
:103BF0003F2E3092BB022092BA02EDEFFBE0F09331
:103C0000C502E093C402E0E02E2EECE03E2E30929E
:103C1000CF022092CE02E3E0FCE0F093D902E093E1
:103C2000D802F6E02F2EFCE03F2E3092E3022092E5
:103C3000E202E9E0FCE0F093ED02E093EC02ECE05C
:103C40002E2EECE03E2E3092F7022092F602EFE0AC
:103C5000FCE0F0930103E0930003F2E12F2EFCE07F
:103C60003F2E30920B0320920A03E5E1FCE0F09333
:103C70001503E0931403E8E12E2EECE03E2E309283
:103C80001F0320921E03EBE1FCE0F0932903E09375
:103C90002803FEE12F2EFCE03F2E309233032092CA
:103CA0003203E1E2FCE0F0933D03E0933C035092E9
:103CB00047034092460370925103609250039092E2
:103CC0005B0380925A03B0926503A0926403D09282
:103CD0006F03C0926E03F0927903E0927803109321
:103CE00083030093820370938D0360938C0350933E
:103CF0009703409396033093A1032093A0039093DE
:103D0000AB038093AA03D093B503C093B403B093DD
:103D1000BF03A093BE03C0E6DCE085EB9AE0998385
:103D20008883AEE4BCE088EE96E011969C938E9377
:103D3000E0E5FCE080E8808386E9818388E982838E
:103D40001382148215821682178241E050E060E0EF
:103D500070E04093580C5093590C60935A0C709338
:103D60005B0CD0935D0CC0935C0C81E090E0909371
:103D70005F0C80935E0C2EEE36E03093630C209344
:103D8000620C23EF36E03093650C2093640CB09303
:103D9000670CA093660C9093690C8093680CDF917C
:103DA000CF911F910F91FF90EF90DF90CF90BF9038
:103DB000AF909F908F907F906F905F904F903F90CB
:103DC0002F900895CF93DF93CDB7DEB764970FB6EA
:103DD000F894DEBF0FBECDBF789484B5826084BDF9
:103DE00084B5816084BD85B5826085BD85B58160FF
:103DF00085BD80916E00816080936E00109281007D
:103E00008091810082608093810080918100816037
:103E100080938100809180008160809380008091F8
:103E2000B10084608093B1008091B0008160809384
:103E3000B000809191008260809391008091910008
:103E400081608093910080919000816080939000C8
:103E50008091A10082608093A1008091A100816087
:103E60008093A1008091A00081608093A000809148
:103E700021018260809321018091210181608093E2
:103E800021018091200181608093200180917A003E
:103E9000846080937A0080917A00826080937A00B7
:103EA00080917A00816080937A0080917A008068A6
:103EB00080937A001092C100E8E0F2E0808591855D
:103EC000009749F02081213009F4D3C008F4B2C032
:103ED000223009F4EBC03A9623E0E03CF20771F798
:103EE0008091680C9091690C9A8B898BA091660CDB
:103EF000B091670CBC8BAB8BBA83A9831A861986E9
:103F0000312C212C712C812C912C1B821C82612C38
:103F1000512C412CE989FA8929853A85E217F30762
:103F200009F4EAC0A981BA8150968D919C9151976C
:103F3000280E391E1296DC9012971396EC90139768
:103F40001496FC90149715960C91159716961C9143
:103F500016971796BC91E981FA81C084B1842D2D02
:103F60003E2D4F2D502F612F7B2F8C2D9B2DA0E0B0
:103F70000E94DF2409F054F4D12C6DE2E62E71E3A7
:103F8000F72E01E010E0B0E0C12CB12CDD82EF8211
:103F9000FB860C871D87BE87CF86B88A272D382DD4
:103FA000492D5B816C81762D852D942DA0E00E949A
:103FB000DF2459F1AD80BF80CB84DC84ED84FE84A6
:103FC0000F851889272D382D492D5B816C81762D21
:103FD000852D942D0E942F24D22EE32EF42E052F12
:103FE000162FB72FF82FE92F7A2C8B2C9C2C2C8591
:103FF0002B833D853C836E845F8448882D2D3E2D28
:10400000A0E00E94DF2409F06EC089859A850196A0
:104010009A878987A981BA815296BA83A9837D80BC
:104020008F809B84BC85BB83ED85EC836E845F842D
:10403000488870CF2181222351F0223009F04BCFE4
:10404000A281B381AA0FBB1FA358B84F0FC0228112
:104050003381A48173E0220F331F7A95E1F7A20F19
:10406000B32FB11DAA0FBB1FA354B84F8D939C93C0
:1040700032CF2181222351F0223009F02CCFA281AE
:10408000B381AA0FBB1FA35DB74FF0CF228133814D
:10409000A48143E0220F331F4A95E1F7A20FB32F0B
:1040A000B11DAA0FBB1FA359B74FE0CF2181233009
:1040B00061F0243089F0223009F00DCFA281B38164
:1040C000AA0FBB1FAB5AB84FD1CFA281B381AA0FA1
:1040D000BB1FA35DB84FCACFA281B381AA0FBB1F7C
:1040E000AB5FB84FC3CFDD82EF82FB860C871D87A5
:1040F000BE87FF87E88B5ECF272D382D492D5B814A
:104100006C81762D852D942DA0E00E94DF2459F43A
:10411000712C4DE2842E51E3952EF1E0FB831C823D
:10412000612C512C412C70920002809201029092DD
:1041300002022B81209303023C813093040260929F
:1041400005025092060240920702211480E43806CC
:1041500008F0A3C0C101880F991F009709F4A0C0FF
:104160000E94EB249E838D839093F9088093F80836
:10417000211490E2390608F096C0C101880F991FFA
:10418000880F991F009709F491C00E94EB2498872B
:104190008F839093FF088093FE083092010920924C
:1041A00000091A821982312C212CA985BA85E9814E
:1041B000FA81AE17BF0709F489C0AB89BC89129692
:1041C000DC9012971396EC9013971496FC9014972A
:1041D00015960C91159716961C9116971796BC91EB
:1041E000EB89FC89C084B1842D2D3E2D4F2D502F9D
:1041F000612F7B2F8C2D9B2DA0E00E94DF2409F0E6
:1042000044F4272D382D492D5B816C81762D852D29
:10421000942DA72CB82CC92CDB80EC80F62C052D16
:10422000142D0E943124B22EA32E742F652FAB893A
:10423000BC8950964D915C918A01000F111F71014C
:10424000EE0CFF1C6101CC0CDD1CCC0CDD1C90E0E5
:1042500080E08017910769F1AB89BC891E96ED91CA
:10426000FC91E80FF91F20813181FC01EE0DFF1D4B
:10427000AD81BE81EA0FFB1F31832083FC01EE0F6D
:10428000FF1FEC0DFD1D2F813885E20FF31FB0825B
:10429000A182728363830296DCCF8FEF9FEF60CFA2
:1042A00081E090E05DCF8FEF9FEF6FCF81E090E0F6
:1042B0006CCF240E351E89819A8101969A83898359
:1042C000AB89BC895296BC8BAB8B6FCFE091260A31
:1042D000F091270A82E08083E091220AF091230A7C
:1042E0001082E091240AF091250A80E180831092E7
:1042F0002E0AE0912A0AF0912B0A86E08083E09151
:10430000280AF091290A808180618083E091280A3F
:10431000F091290A808188608083E091280AF091D9
:10432000290A808180688083E091280AF091290A17
:1043300080818F7D808386E19AE09093040780934B
:1043400003078FEF809302078EEE92E090930107B0
:104350008093000781E49AE09093FF068093FE0625
:1043600081E08093DD0884E38093E00884E180931A
:10437000E3088093E60888E38093E90890E290934D
:10438000EC088093EF0887E090E00E94EB24909384
:10439000E8088093E708009709F451C017E0FC0192
:1043A000212F11922A95E9F788E690E00E94EB24EC
:1043B0009093DF088093DE08009709F440C028E658
:1043C000DC011D922A95E9F780E590E00E94EB243C
:1043D0009093E2088093E108009789F120E5FC01C1
:1043E00011922A95E9F780EA90E00E94EB249093DD
:1043F000E5088093E408009711F120EADC011D92A2
:104400002A95E9F787E090E00E94EB249093EE086C
:104410008093ED08009799F0FC0111921A95E9F745
:1044200080E490E00E94EB249093EB088093EA08EC
:10443000009729F020E4DC011D922A95E9F710E0AD
:1044400000E0C801880F991FFC01E359F74F7F0175
:1044500080819181892B49F481E090E00E94EB24D6
:10446000D7018D939C93FC0110820F5F1F4F08337F
:10447000110539F70091DE081091DF08EDE2F8E050
:1044800090E080E021913191232B39F4DF011297E4
:104490009801280F391F2D933C9302968034910583
:1044A00089F7D12CC12CC601880F991F9C01235478
:1044B000384F7901D9018D919C91892B49F481E084
:1044C00090E00E94EB24F70191838083DC011C9231
:1044D000BFEFCB1ADB0AE8E3CE16D10421F7209117
:1044E000EA083091EB08EDE7F7E090E080E04191D9
:1044F0005191452B39F4DF011297A901480F591F3B
:104500004D935C9302968034910589F7E5E5F7E0D9
:1045100090E080E0005C1F4F21913191232B39F412
:10452000DF0112979801280F391F2D933C930296B3
:104530008832910589F74091E1085091E208EDE257
:10454000F7E090E080E021913191232B59F4DF01D5
:1045500012979C01220F331F220F331F240F351F88
:104560002D933C9301968431910569F74091E408BD
:104570005091E508E5E0F7E090E080E0219131918D
:10458000232B61F4DF0112979C0163E0220F331F9C
:104590006A95E1F7240F351F2D933C9301968431E2
:1045A000910561F748EEA42E53E0B52EC12CD12C15
:1045B000E12CF12C00E010E0272D382D492D5B81F6
:1045C0006C81762D852D942D0E9431242093030932
:1045D0003093040940930509509306090E94F002A4
:1045E00060930709709308098093090990930A0959
:1045F000992493940E94F0020091070910910809F0
:104600002091090930910A09601B710B820B930BF1
:1046100000910309109104092091050930910609C0
:10462000601771078207930708F4C7C00E94CD0C7A
:104630001A821982809100099091010929813A8199
:1046400028173907D8F5E091FE08F091FF08C90155
:10465000880F991F880F991FE80FF91F208131815A
:1046600042815381211531054105510571F0609159
:10467000FA087091FB088091FC089091FD080E9457
:10468000F623672B682B692B99F4E091F808F091D9
:10469000F90889819A81880F991FE80FF91F808195
:1046A0009181DC01ED91FC910480F581E02D19955B
:1046B000E981FA813196FA83E983BCCF8091FA08C7
:1046C0009091FB08A091FC08B091FD080196A11DF6
:1046D000B11D8093FA089093FB08A093FC08B09357
:1046E000FD082091F0083091F1084091F2085091B6
:1046F000F3086091F4087091F5088091F6089091A4
:10470000F708A0900002B0900102C0900202D09081
:104710000302E0900402F09005020091060210915D
:1047200007020E94C4242093F0083093F1084093BC
:10473000F2085093F3086093F4087093F50880939F
:10474000F6089093F7080E94BF0E8091020981112C
:1047500018C0909202090E94F00200910309109182
:1047600004092091050930910609601B710B820B29
:10477000930B60930709709308098093090990933C
:104780000A098091070990910809A0910909B0913F
:104790000A0940910309509104096091050970913B
:1047A0000609840F951FA61FB71F809307099093D2
:1047B0000809A0930909B0930A090E94F002009128
:1047C0000709109108092091090930910A09601B15
:1047D000710B820B930B603177428105910510F0CC
:1047E0000E94BF0E88950E941E0404CFA1E21A2EDB
:1047F000AA1BBB1BFD010DC0AA1FBB1FEE1FFF1F85
:10480000A217B307E407F50720F0A21BB30BE40BD4
:10481000F50B661F771F881F991F1A9469F760951B
:104820007095809590959B01AC01BD01CF010895D5
:10483000EE0FFF1F881F8BBF0790F691E02D199494
:10484000A29FB001B39FC001A39F700D811D1124D1
:10485000911DB29F700D811D1124911D08956894C2
:1048600001C0E8948F929F92CF93DF930E943D24E2
:10487000DF91CF919F908F90089588249924F4011F
:10488000E401B0E49F93AA279A158B049C04ED05DC
:10489000FE05CF05D007A10798F4AD2FDC2FCF2F51
:1048A000FE2FE92D982C892E982F872F762F652F94
:1048B000542F432F322F2227B85031F7BF9127C0F2
:1048C0001B2EBF91BB27220F331F441F551F661F8E
:1048D000771F881F991F881C991CEE1FFF1FCC1F74
:1048E000DD1FAA1FBB1F8A149B04EC05FD05CE0526
:1048F000DF05A007B10748F08A189B08EC09FD09FD
:10490000CE09DF09A00BB10B21601A94E1F62EF459
:104910009401AF01BE01CD01000C0895002E0830B6
:1049200090F0982F872F762F652F542F432F322FFB
:1049300022270850F4CF220F331F441F551F661F34
:10494000771F881F991F0A95B2F7002D089597FDCC
:104950001094002E083098F00850232F342F452F44
:10496000562F672F782F892F912DF4CF1594979577
:1049700087957795679557954795379527950A9524
:10498000AAF71124002D08952A0D3B1D4C1D5D1D15
:104990006E1D7F1D801F911F08952A193B094C0928
:1049A0005D096E097F09800B910B08952A153B055F
:1049B0004C055D056E057F0580079107089500246D
:1049C000A7FD00942A1730054005500560057005C5
:1049D0008005900508950F931F93CF93DF93823046
:1049E000910510F482E090E0E0916C0CF0916D0C78
:1049F00030E020E0B0E0A0E0309799F421153105D7
:104A000009F44AC0281B390B24303105D8F58A81B6
:104A10009B816115710589F1FB0193838283FE01FE
:104A200011C0408151810281138148175907E0F07C
:104A30004817590799F4109761F012960C93129742
:104A400013961C933296CF01DF91CF911F910F9156
:104A5000089500936C0C10936D0CF4CF2115310563
:104A600051F04217530738F0A901DB019A01BD014B
:104A7000DF01F801C1CFEF01F9CF90936D0C809366
:104A80006C0CCDCFFE01E20FF31F81939193225066
:104A9000310939832883D7CF20916A0C30916B0C70
:104AA000232B41F42091C2033091C30330936B0C4C
:104AB00020936A0C2091C0033091C1032115310568
:104AC00041F42DB73EB74091C4035091C503241B58
:104AD000350BE0916A0CF0916B0CE217F307A0F430
:104AE0002E1B3F0B2817390778F0AC014E5F5F4F44
:104AF0002417350748F04E0F5F1F50936B0C4093FF
:104B00006A0C819391939FCFF0E0E0E09CCFCF932C
:104B1000DF930097E9F0FC01329713821282A09193
:104B20006C0CB0916D0CED0130E020E01097A1F419
:104B300020813181820F931F20916A0C30916B0C80
:104B40002817390709F061C0F0936B0CE0936A0CE9
:104B5000DF91CF910895EA01CE17DF07E8F54A818A
:104B60005B819E0141155105B1F7E901FB83EA83A1
:104B700049915991C40FD51FEC17FD0761F480814D
:104B800091810296840F951FE90199838883828120
:104B900093819B838A83F0E0E0E012968D919C9153
:104BA00013970097B9F52D913C911197CD0102967D
:104BB000820F931F20916A0C30916B0C28173907D4
:104BC00039F6309751F510926D0C10926C0CB09331
:104BD0006B0CA0936A0CBCCFD383C28340815181FC
:104BE000840F951FC817D90761F44E5F5F4F888106
:104BF0009981480F591F518340838A819B819383F8
:104C000082832115310509F0B0CFF0936D0CE0934C
:104C10006C0C9ECFFD01DC01C0CF13821282D7CF76
:104C2000FB01DC0102C001900D9241505040D8F7C9
:104C30000895DC0101C06D9341505040E0F70895A4
:104C4000F894FFCF002D31010000000000000000AB
:104C50000000000000000000000001000000000053
:104C6000000000000200000000000000000003003F
:104C70000000000000000000040000000000000030
:104C80000000050000000000000000000600000019
:104C9000000000000000070000000000000001000C
:104CA0000000000000000000010001000000000002
:104CB00000000100020000000000000001000300ED
:104CC00000000000000001000400000000000000DF
:104CD00001000500000000000000010006000000C7
:104CE00000000000010007000000000000000200BA
:104CF00000000000000000000200010000000000B1
:104D0000000002000200000000000000020003009A
:104D1000000000000000020004000000000000008D
:104D20000200050000000000000002000600000074
:104D30000000000002000700000000000100000069
:104D40000000000000000100000001000000000061
:104D5000010000000200000000000100000003004C
:104D6000000000000100000004000000000001003D
:104D70000000050000000000010000000600000027
:104D80000000010000000700000000000100010019
:104D90000000000000000100010001000000000010
:104DA00001000100020000000000010001000300FA
:104DB00000000000010001000400000000000100EC
:104DC00001000500000000000100010006000000D5
:104DD00000000100010007000000000002010500C2
:104DE00000000000000001000200010000000000BF
:104DF00002010100000000000000010002000000AC
:104E00000000000000006E0C800000C0C101C30360
:104E100002C2C60607C705C5C404CC0C0DCD0FCF12
:104E2000CE0E0ACACB0BC90908C8D81819D91BDB82
:104E3000DA1A1EDEDF1FDD1D1CDC14D4D515D717D2
:104E400016D6D21213D311D1D010F03031F133F382
:104E5000F23236F6F737F53534F43CFCFD3DFF3FD2
:104E60003EFEFA3A3BFB39F9F83828E8E929EB2B02
:104E70002AEAEE2E2FEF2DEDEC2CE42425E527E792
:104E8000E62622E2E323E12120E0A06061A163A302
:104E9000A26266A6A767A56564A46CACAD6DAF6F92
:104EA0006EAEAA6A6BAB69A9A86878B8B979BB7B02
:104EB0007ABABE7E7FBF7DBDBC7CB47475B577B752
:104EC000B67672B2B373B17170B050909151935382
:104ED000529296565797559594549C5C5D9D5F9F52
:104EE0009E5E5A9A9B5B99595898884849894B8B82
:104EF0008A4A4E8E8F4F8D4D4C8C44848545874712
:104F00004686824243834181804000C1814001C086
:104F1000804101C0804100C1814001C0804100C189
:104F2000814000C1814001C0804101C0804100C179
:104F3000814000C1814001C0804100C1814001C069
:104F4000804101C0804100C1814001C0804100C159
:104F5000814000C1814001C0804100C1814001C049
:104F6000804101C0804100C1814000C1814001C039
:104F7000804101C0804100C1814001C0804100C129
:104F8000814000C1814001C0804101C0804100C119
:104F9000814000C1814001C0804100C1814001C009
:104FA000804101C0804100C1814000C1814001C0F9
:104FB000804101C0804100C1814001C0804100C1E9
:104FC000814000C1814001C0804100C1814001C0D9
:104FD000804101C0804100C1814001C0804100C1C9
:104FE000814000C1814001C0804101C0804100C1B9
:104FF000814000C1814001C0804100C1814001C0A9
:10500000804101C0804100C181404D0E0007C40CA9
:10501000400E012407210717070E070106070307A3
:10502000F606ED0601E206B906D506CA0602BF0677
:10503000BC06AC06A106028C06D80479066A0604F2
:10504000550652063F0630060406068705DA05B700
:1050500005088D058A055B05380508230520050D23
:1050600005F30404DE04DB04C504AB0404060703F3
:1050700007F606ED0601BF06BC06AC06A106025502
:105080000652063F063006048D058A055B05380585
:105090000806068705DA05B7050806068705DA0556
:1050A000B7050806068705DA05B705080606870569
:1050B000DA05B70508F7193B0E401AB5197F7F0DC1
:1050C0007B0D5E19DE0DFD000000006204B31900C7
:1050D000000000B1031B034803FE03790357036B71
:1050E00003000000004F04B1193F095F045C045B3A
:1050F000045B045004000000006304AF1997041817
:10510000031503434F4E464947300034333733616C
:105110003134363461616666393432643531613335
:105120003436613762666632396665005441534BE6
:0C51300030005245533000504C4300004A
:020000040003F7
:10E000000D9489F10D94B2F10D94B2F10D94B2F129
:10E010000D94B2F10D94B2F10D94B2F10D94B2F1F0
:10E020000D94B2F10D94B2F10D94B2F10D94B2F1E0
:10E030000D94B2F10D94B2F10D94B2F10D94B2F1D0
:10E040000D94B2F10D94B2F10D94B2F10D94B2F1C0
:10E050000D94B2F10D94B2F10D94B2F10D94B2F1B0
:10E060000D94B2F10D94B2F10D94B2F10D94B2F1A0
:10E070000D94B2F10D94B2F10D94B2F10D94B2F190
:10E080000D94B2F10D94B2F10D94B2F10D94B2F180
:10E090000D94B2F10D94B2F10D94B2F10D94B2F170
:10E0A0000D94B2F10D94B2F10D94B2F10D94B2F160
:10E0B0000D94B2F10D94B2F10D94B2F10D94B2F150
:10E0C0000D94B2F10D94B2F10D94B2F10D94B2F140
:10E0D0000D94B2F10D94B2F10D94B2F10D94B2F130
:10E0E0000D94B2F141546D656761323536300041AF
:10E0F000726475696E6F206578706C6F72657220DE
:10E1000073746B3530305632206279204D4C530099
:10E11000426F6F746C6F616465723E004875683F52
:10E1200000436F6D70696C6564206F6E203D200048
:10E130004350552054797065202020203D20005FF9
:10E140005F4156525F415243485F5F3D2000415658
:10E1500052204C696243205665723D20004743437C
:10E160002056657273696F6E203D20004350552024
:10E1700049442020202020203D20004C6F7720663D
:10E18000757365202020203D20004869676820665F
:10E190007573652020203D200045787420667573D6
:10E1A00065202020203D20004C6F636B2066757336
:10E1B000652020203D20004D617220203720323024
:10E1C000313300312E362E3800342E332E350056A2
:10E1D00023202020414444522020206F7020636F70
:10E1E00064652020202020696E73747275637469E1
:10E1F0006F6E2061646472202020496E74657272B3
:10E20000757074006E6F20766563746F7200726A49
:10E210006D702020006A6D70200057686174207056
:10E220006F72743A00506F7274206E6F7420737541
:10E2300070706F72746564004D7573742062652030
:10E2400061206C6574746572002000577269747483
:10E25000696E672045450052656164696E672045B7
:10E26000450045452065727220636E743D00504F35
:10E27000525400303D5A65726F2061646472003FF1
:10E280003D43505520737461747300403D454550C3
:10E29000524F4D207465737400423D426C696E6B41
:10E2A000204C454400453D44756D70204545505215
:10E2B0004F4D00463D44756D7020464C415348001B
:10E2C000483D48656C70004C3D4C69737420492F83
:10E2D0004F20506F72747300513D51756974005234
:10E2E0003D44756D702052414D00563D73686F7707
:10E2F00020696E7465727275707420566563746FF0
:10E30000727300593D506F727420626C696E6B00BD
:10E310002A0011241FBECFEFD1E2DEBFCDBF01E046
:10E320000CBF12E0A0E0B2E0EEE1FDEF03E00BBFB6
:10E3300002C007900D92A030B107D9F712E0A0E01B
:10E34000B2E001C01D92AE30B107E1F70F9460F367
:10E350000D948DFE01E20EBF0FEF0DBF11241FBE05
:10E360000D9460F30D9400F020E030E040ED57E0B4
:10E3700005C0FA013197F1F72F5F3F4F2817390792
:10E38000C0F308959C01260F311DC901A0E0B0E043
:10E390002F5F3F4FABBFFC018791882361F08093D3
:10E3A000C6008091C00086FFFCCF8091C0008064D1
:10E3B0008093C000EACF08958DE08093C6008091DD
:10E3C000C00086FFFCCF8091C00080648093C000B5
:10E3D0008AE08093C6008091C00086FFFCCF8091C8
:10E3E000C00080648093C00008950F94C2F10F9420
:10E3F000DCF10895FC019081992359F09093C600B7
:10E400008091C00086FFFCCF8091C0008064809323
:10E41000C0003196992379F70895282F982F929567
:10E420009F70892F805D8A3308F0895F8093C600D2
:10E430008091C00086FFFCCF8091C00080648093F3
:10E44000C000822F8F70982F905D9A3308F0995FEB
:10E450009093C6008091C00086FFFCCF8091C000E1
:10E4600080648093C00008959C01FB01853691056E
:10E470001CF46330710594F0C90164E670E00F94F8
:10E480002EFE605D7F4F6093C6008091C00086FFC6
:10E49000FCCF8091C00080648093C0002B30310598
:10E4A00014F43297B4F0C90164E670E00F942EFEC4
:10E4B0006AE070E00F942EFE605D7F4F6093C600AF
:10E4C0008091C00086FFFCCF8091C0008064809363
:10E4D000C000C9016AE070E00F942EFEC0968093E0
:10E4E000C6008091C00086FFFCCF8091C000806490
:10E4F0008093C00008951F93182F8EE692EE60E07F
:10E500000F94C2F11093C6008091C00086FFFCCF2B
:10E510008091C00080648093C0000F94DCF11F9153
:10E5200008952F923F924F925F926F927F928F92B7
:10E530009F92AF92BF92CF92DF92EF92FF920F9392
:10E540001F93DF93CF93CDB7DEB762970FB6F894E2
:10E55000DEBF0FBECDBF382E622ECA01DB015C01CB
:10E560006D01772420E2222E2E010894411C511CBB
:10E570008BC081E0A81680E0B80681E0C80680E084
:10E58000D80628F0C601AA27BB270F940DF2BB2797
:10E59000AD2D9C2D8B2D0F940DF28A2D0F940DF225
:10E5A0002092C6008091C00086FFFCCF8091C00001
:10E5B00080648093C0009DE29093C6008091C0006B
:10E5C00086FFFCCF8091C00080648093C0002092C1
:10E5D000C6008091C00086FFFCCF8091C00080649F
:10E5E0008093C00019828601750188249924A1E0D6
:10E5F0003A1651F03A1620F0B2E03B1661F409C029
:10E600000BBFF701779007C0C7010F9477FE782EF4
:10E6100002C0F7017080872D0F940DF22092C60082
:10E620008091C00086FFFCCF8091C0008064809301
:10E63000C000872D8052F401EF70F0708F3520F408
:10E64000E40DF51D708204C0E40DF51D8EE280839B
:10E650000894E11CF11C011D111D0894811C911CE2
:10E6600090E18916910409F0C2CF80E190E0A0E02A
:10E67000B0E0A80EB91ECA1EDB1E198AC2010F9493
:10E68000FAF10F94DCF16A94662009F072CF629679
:10E690000FB6F894DEBF0FBECDBFCF91DF911F91B3
:10E6A0000F91FF90EF90DF90CF90BF90AF909F9031
:10E6B0008F907F906F905F904F903F902F90089534
:10E6C0002F923F924F925F926F927F928F929F9282
:10E6D000AF92BF92CF92DF92EF92FF920F931F9370
:10E6E000DF93CF93CDB7DEB7CD53D1400FB6F894BB
:10E6F000DEBF0FBECDBF01E20EBF0FEF0DBF94B75F
:10E70000F894A89514BE80916000886180936000A1
:10E7100010926000789493FF05C0E0910002F091A0
:10E7200001021995279A2F9A8091C00082608093E8
:10E73000C00080E18093C40088E18093C1000000A4
:10E74000EE24FF24870144E0A42EB12CCC24DD2448
:10E7500024C0C5010197F1F70894E11CF11C011DCB
:10E76000111D21E2E2162EE4F20620E0020720E06D
:10E77000120718F031E0C32ED12CC801B70127ECE5
:10E780003BE140E050E00F9441FE611571058105C9
:10E79000910519F485B1805885B98091C00087FD35
:10E7A00003C0C114D104A9F2A6014F5F5F4FC25E3E
:10E7B000DE4F59834883CE51D140C25EDE4F8881FF
:10E7C0009981CE51D140019711F00D9410FEC05D9A
:10E7D000DE4F19821882C053D14060E0C15DDE4F28
:10E7E0001882CF52D14088249924C35DDE4F19820C
:10E7F0001882CD52D140C05EDE4F188219821A8233
:10E800001B82C052D140CE5CDE4F188219821A8220
:10E810001B82C253D140EE24FF2487010BBFF701B6
:10E8200007911691C45CDE4F19830883CC53D14005
:10E830000D940BFEC25EDE4F28813981CE51D1404E
:10E840002130310509F52091C600C25EDE4F1982E4
:10E850001882CE51D14022C02F5F3F4F4F4F5F4FA4
:10E86000213082E138078AE7480780E0580780F0C6
:10E87000C45CDE4FE881F981CC53D140EF5FFF4F9C
:10E8800019F0EE27FF27099420E030E040E050E047
:10E890008091C00087FFE0CF2091C600C35DDE4FAE
:10E8A00048815981CD52D1404F5F5F4FC35DDE4FEC
:10E8B00059834883CD52D140213209F063C64A3092
:10E8C000510508F05FC60894811C911C53E0851621
:10E8D000910409F059C600E010E018C081E280936D
:10E8E000C6008091C00086FFFCCF8091C00080648C
:10E8F0008093C0002F5F3F4F2931310579F70F9486
:10E90000DCF10F5F1F4F0530110519F020E030E0FA
:10E91000E5CF10920A0210920B0210920C02109294
:10E920000D02109206021092070210920802109235
:10E930000902109202021092030210920402109235
:10E9400005028FEE90EE60E00F94F5F180E191EE1C
:10E9500060E00F94C2F18091C00087FFFCCF9091DE
:10E96000C600903608F09F759032B8F09093C600BC
:10E970008091C00086FFFCCF8091C00080648093AE
:10E98000C000A0E2A093C6008091C00086FFFCCF2B
:10E990008091C00080648093C000983409F4D7C18E
